{
  "_format": "hh-sol-artifact-1",
  "contractName": "CrowdfundPlatform",
  "sourceName": "contracts/CrowdfundPlatform.sol",
  "abi": [
    {
      "inputs": [
        {
          "internalType": "address",
          "name": "tokenAddress_",
          "type": "address"
        },
        {
          "internalType": "address",
          "name": "nftAddress_",
          "type": "address"
        }
      ],
      "stateMutability": "nonpayable",
      "type": "constructor"
    },
    {
      "inputs": [],
      "name": "_admin",
      "outputs": [
        {
          "internalType": "address",
          "name": "",
          "type": "address"
        }
      ],
      "stateMutability": "view",
      "type": "function"
    },
    {
      "inputs": [],
      "name": "_campaignCount",
      "outputs": [
        {
          "internalType": "uint256",
          "name": "",
          "type": "uint256"
        }
      ],
      "stateMutability": "view",
      "type": "function"
    },
    {
      "inputs": [
        {
          "internalType": "uint256",
          "name": "",
          "type": "uint256"
        }
      ],
      "name": "_campaigns",
      "outputs": [
        {
          "internalType": "address",
          "name": "creator",
          "type": "address"
        },
        {
          "internalType": "uint256",
          "name": "goal",
          "type": "uint256"
        },
        {
          "internalType": "uint256",
          "name": "pledged",
          "type": "uint256"
        },
        {
          "internalType": "uint256",
          "name": "startAt",
          "type": "uint256"
        },
        {
          "internalType": "uint256",
          "name": "endAt",
          "type": "uint256"
        },
        {
          "internalType": "bool",
          "name": "claimed",
          "type": "bool"
        }
      ],
      "stateMutability": "view",
      "type": "function"
    },
    {
      "inputs": [],
      "name": "_nftAddress",
      "outputs": [
        {
          "internalType": "address",
          "name": "",
          "type": "address"
        }
      ],
      "stateMutability": "view",
      "type": "function"
    },
    {
      "inputs": [],
      "name": "_token",
      "outputs": [
        {
          "internalType": "contract IERC20",
          "name": "",
          "type": "address"
        }
      ],
      "stateMutability": "view",
      "type": "function"
    },
    {
      "inputs": [
        {
          "internalType": "uint256",
          "name": "campaignId_",
          "type": "uint256"
        }
      ],
      "name": "cancelCampaign",
      "outputs": [],
      "stateMutability": "nonpayable",
      "type": "function"
    },
    {
      "inputs": [
        {
          "internalType": "uint256",
          "name": "campaignId_",
          "type": "uint256"
        }
      ],
      "name": "claimFromCampaign",
      "outputs": [],
      "stateMutability": "nonpayable",
      "type": "function"
    },
    {
      "inputs": [
        {
          "internalType": "uint256",
          "name": "goal_",
          "type": "uint256"
        },
        {
          "internalType": "uint256",
          "name": "startAt_",
          "type": "uint256"
        },
        {
          "internalType": "uint256",
          "name": "endAt_",
          "type": "uint256"
        }
      ],
      "name": "createCampaign",
      "outputs": [],
      "stateMutability": "nonpayable",
      "type": "function"
    },
    {
      "inputs": [
        {
          "internalType": "address",
          "name": "pledger_",
          "type": "address"
        },
        {
          "internalType": "uint256",
          "name": "campaignId_",
          "type": "uint256"
        },
        {
          "internalType": "uint256",
          "name": "amount_",
          "type": "uint256"
        }
      ],
      "name": "pledgeToCampaign",
      "outputs": [],
      "stateMutability": "nonpayable",
      "type": "function"
    },
    {
      "inputs": [
        {
          "internalType": "address",
          "name": "pledger_",
          "type": "address"
        },
        {
          "internalType": "uint256",
          "name": "campaignId_",
          "type": "uint256"
        },
        {
          "internalType": "uint256",
          "name": "amount_",
          "type": "uint256"
        }
      ],
      "name": "refundFromCampaign",
      "outputs": [],
      "stateMutability": "nonpayable",
      "type": "function"
    },
    {
      "inputs": [
        {
          "internalType": "address",
          "name": "pledger_",
          "type": "address"
        },
        {
          "internalType": "uint256",
          "name": "campaignId_",
          "type": "uint256"
        },
        {
          "internalType": "uint256",
          "name": "amount_",
          "type": "uint256"
        }
      ],
      "name": "unpledgeFromCampaign",
      "outputs": [],
      "stateMutability": "nonpayable",
      "type": "function"
    }
  ],
  "bytecode": "0x60806040523480156200001157600080fd5b5060405162001fba38038062001fba833981810160405281019062000037919062000118565b33600160006101000a81548173ffffffffffffffffffffffffffffffffffffffff021916908373ffffffffffffffffffffffffffffffffffffffff160217905550816000806101000a81548173ffffffffffffffffffffffffffffffffffffffff021916908373ffffffffffffffffffffffffffffffffffffffff16021790555080600260006101000a81548173ffffffffffffffffffffffffffffffffffffffff021916908373ffffffffffffffffffffffffffffffffffffffff1602179055505050620001a7565b60008151905062000112816200018d565b92915050565b600080604083850312156200012c57600080fd5b60006200013c8582860162000101565b92505060206200014f8582860162000101565b9150509250929050565b600062000166826200016d565b9050919050565b600073ffffffffffffffffffffffffffffffffffffffff82169050919050565b620001988162000159565b8114620001a457600080fd5b50565b611e0380620001b76000396000f3fe608060405234801561001057600080fd5b50600436106100a95760003560e01c8063a65d615511610071578063a65d61551461013e578063b15ce3ed1461015c578063cfb26e8314610178578063d946035314610194578063ecd0c0c3146101c9578063f69d3158146101e7576100a9565b806301bc45c9146100ae57806317dd09a3146100cc57806345598b4a146100ea5780638ff9ded1146101065780639d31bc1e14610122575b600080fd5b6100b6610203565b6040516100c39190611641565b60405180910390f35b6100d4610229565b6040516100e19190611938565b60405180910390f35b61010460048036038101906100ff919061135d565b61022f565b005b610120600480360381019061011b91906112e5565b610417565b005b61013c600480360381019061013791906112e5565b6106ca565b005b6101466109c6565b6040516101539190611641565b60405180910390f35b610176600480360381019061017191906112e5565b6109ec565b005b610192600480360381019061018d919061135d565b610d71565b005b6101ae60048036038101906101a9919061135d565b610ff4565b6040516101c0969594939291906116bc565b60405180910390f35b6101d161105d565b6040516101de919061171d565b60405180910390f35b61020160048036038101906101fc9190611386565b611081565b005b600160009054906101000a900473ffffffffffffffffffffffffffffffffffffffff1681565b60035481565b6000600460008381526020019081526020016000206040518060c00160405290816000820160009054906101000a900473ffffffffffffffffffffffffffffffffffffffff1673ffffffffffffffffffffffffffffffffffffffff1673ffffffffffffffffffffffffffffffffffffffff168152602001600182015481526020016002820154815260200160038201548152602001600482015481526020016005820160009054906101000a900460ff16151515158152505090503373ffffffffffffffffffffffffffffffffffffffff16816000015173ffffffffffffffffffffffffffffffffffffffff161461035c576040517f08c379a000000000000000000000000000000000000000000000000000000000815260040161035390611818565b60405180910390fd5b428160600151116103a2576040517f08c379a0000000000000000000000000000000000000000000000000000000008152600401610399906118b8565b60405180910390fd5b60046000838152602001908152602001600020600080820160006101000a81549073ffffffffffffffffffffffffffffffffffffffff021916905560018201600090556002820160009055600382016000905560048201600090556005820160006101000a81549060ff021916905550505050565b600260009054906101000a900473ffffffffffffffffffffffffffffffffffffffff1673ffffffffffffffffffffffffffffffffffffffff163373ffffffffffffffffffffffffffffffffffffffff16146104a7576040517f08c379a000000000000000000000000000000000000000000000000000000000815260040161049e90611758565b60405180910390fd5b600073ffffffffffffffffffffffffffffffffffffffff168373ffffffffffffffffffffffffffffffffffffffff161415610517576040517f08c379a000000000000000000000000000000000000000000000000000000000815260040161050e90611778565b60405180910390fd5b6000821161055a576040517f08c379a000000000000000000000000000000000000000000000000000000000815260040161055190611878565b60405180910390fd5b6000811161059d576040517f08c379a000000000000000000000000000000000000000000000000000000000815260040161059490611798565b60405180910390fd5b600060046000848152602001908152602001600020905042816004015410156105fb576040517f08c379a00000000000000000000000000000000000000000000000000000000081526004016105f290611738565b60405180910390fd5b8181600201600082825461060f91906119ba565b9250508190555060008054906101000a900473ffffffffffffffffffffffffffffffffffffffff1673ffffffffffffffffffffffffffffffffffffffff1663a9059cbb85846040518363ffffffff1660e01b8152600401610671929190611693565b602060405180830381600087803b15801561068b57600080fd5b505af115801561069f573d6000803e3d6000fd5b505050506040513d601f19601f820116820180604052508101906106c39190611334565b5050505050565b600260009054906101000a900473ffffffffffffffffffffffffffffffffffffffff1673ffffffffffffffffffffffffffffffffffffffff163373ffffffffffffffffffffffffffffffffffffffff161461075a576040517f08c379a000000000000000000000000000000000000000000000000000000000815260040161075190611758565b60405180910390fd5b600073ffffffffffffffffffffffffffffffffffffffff168373ffffffffffffffffffffffffffffffffffffffff1614156107ca576040517f08c379a00000000000000000000000000000000000000000000000000000000081526004016107c190611778565b60405180910390fd5b6000821161080d576040517f08c379a000000000000000000000000000000000000000000000000000000000815260040161080490611878565b60405180910390fd5b60008111610850576040517f08c379a000000000000000000000000000000000000000000000000000000000815260040161084790611798565b60405180910390fd5b600060046000848152602001908152602001600020905042816003015411156108ae576040517f08c379a00000000000000000000000000000000000000000000000000000000081526004016108a5906117f8565b60405180910390fd5b42816004015410156108f5576040517f08c379a00000000000000000000000000000000000000000000000000000000081526004016108ec90611738565b60405180910390fd5b818160020160008282546109099190611964565b9250508190555060008054906101000a900473ffffffffffffffffffffffffffffffffffffffff1673ffffffffffffffffffffffffffffffffffffffff166323b872dd8530856040518463ffffffff1660e01b815260040161096d9392919061165c565b602060405180830381600087803b15801561098757600080fd5b505af115801561099b573d6000803e3d6000fd5b505050506040513d601f19601f820116820180604052508101906109bf9190611334565b5050505050565b600260009054906101000a900473ffffffffffffffffffffffffffffffffffffffff1681565b600260009054906101000a900473ffffffffffffffffffffffffffffffffffffffff1673ffffffffffffffffffffffffffffffffffffffff163373ffffffffffffffffffffffffffffffffffffffff1614610a7c576040517f08c379a0000000000000000000000000000000000000000000000000000000008152600401610a7390611758565b60405180910390fd5b600073ffffffffffffffffffffffffffffffffffffffff168373ffffffffffffffffffffffffffffffffffffffff161415610aec576040517f08c379a0000000000000000000000000000000000000000000000000000000008152600401610ae390611778565b60405180910390fd5b60008211610b2f576040517f08c379a0000000000000000000000000000000000000000000000000000000008152600401610b2690611878565b60405180910390fd5b60008111610b72576040517f08c379a0000000000000000000000000000000000000000000000000000000008152600401610b6990611798565b60405180910390fd5b6000600460008481526020019081526020016000206040518060c00160405290816000820160009054906101000a900473ffffffffffffffffffffffffffffffffffffffff1673ffffffffffffffffffffffffffffffffffffffff1673ffffffffffffffffffffffffffffffffffffffff168152602001600182015481526020016002820154815260200160038201548152602001600482015481526020016005820160009054906101000a900460ff161515151581525050905042816080015110610c73576040517f08c379a0000000000000000000000000000000000000000000000000000000008152600401610c6a906118d8565b60405180910390fd5b8060400151816020015111610cbd576040517f08c379a0000000000000000000000000000000000000000000000000000000008152600401610cb4906117d8565b60405180910390fd5b60008054906101000a900473ffffffffffffffffffffffffffffffffffffffff1673ffffffffffffffffffffffffffffffffffffffff1663a9059cbb85846040518363ffffffff1660e01b8152600401610d18929190611693565b602060405180830381600087803b158015610d3257600080fd5b505af1158015610d46573d6000803e3d6000fd5b505050506040513d601f19601f82011682018060405250810190610d6a9190611334565b5050505050565b60006004600083815260200190815260200160002090503373ffffffffffffffffffffffffffffffffffffffff168160000160009054906101000a900473ffffffffffffffffffffffffffffffffffffffff1673ffffffffffffffffffffffffffffffffffffffff1614610e1a576040517f08c379a0000000000000000000000000000000000000000000000000000000008152600401610e1190611818565b60405180910390fd5b42816004015410610e60576040517f08c379a0000000000000000000000000000000000000000000000000000000008152600401610e57906118d8565b60405180910390fd5b806001015481600201541015610eab576040517f08c379a0000000000000000000000000000000000000000000000000000000008152600401610ea290611918565b60405180910390fd5b8060050160009054906101000a900460ff1615610efd576040517f08c379a0000000000000000000000000000000000000000000000000000000008152600401610ef490611858565b60405180910390fd5b60018160050160006101000a81548160ff02191690831515021790555060008054906101000a900473ffffffffffffffffffffffffffffffffffffffff1673ffffffffffffffffffffffffffffffffffffffff1663a9059cbb8260000160009054906101000a900473ffffffffffffffffffffffffffffffffffffffff1683600201546040518363ffffffff1660e01b8152600401610f9d929190611693565b602060405180830381600087803b158015610fb757600080fd5b505af1158015610fcb573d6000803e3d6000fd5b505050506040513d601f19601f82011682018060405250810190610fef9190611334565b505050565b60046020528060005260406000206000915090508060000160009054906101000a900473ffffffffffffffffffffffffffffffffffffffff16908060010154908060020154908060030154908060040154908060050160009054906101000a900460ff16905086565b60008054906101000a900473ffffffffffffffffffffffffffffffffffffffff1681565b600083116110c4576040517f08c379a00000000000000000000000000000000000000000000000000000000081526004016110bb90611838565b60405180910390fd5b42821015611107576040517f08c379a00000000000000000000000000000000000000000000000000000000081526004016110fe906117b8565b60405180910390fd5b8181101561114a576040517f08c379a000000000000000000000000000000000000000000000000000000000815260040161114190611898565b60405180910390fd5b624f1a00828261115a91906119ba565b111561119b576040517f08c379a0000000000000000000000000000000000000000000000000000000008152600401611192906118f8565b60405180910390fd5b600360008154809291906111ae90611a5a565b91905055506040518060c001604052803373ffffffffffffffffffffffffffffffffffffffff168152602001848152602001600081526020018381526020018281526020016000151581525060046000600354815260200190815260200160002060008201518160000160006101000a81548173ffffffffffffffffffffffffffffffffffffffff021916908373ffffffffffffffffffffffffffffffffffffffff1602179055506020820151816001015560408201518160020155606082015181600301556080820151816004015560a08201518160050160006101000a81548160ff021916908315150217905550905050505050565b6000813590506112b581611d88565b92915050565b6000815190506112ca81611d9f565b92915050565b6000813590506112df81611db6565b92915050565b6000806000606084860312156112fa57600080fd5b6000611308868287016112a6565b9350506020611319868287016112d0565b925050604061132a868287016112d0565b9150509250925092565b60006020828403121561134657600080fd5b6000611354848285016112bb565b91505092915050565b60006020828403121561136f57600080fd5b600061137d848285016112d0565b91505092915050565b60008060006060848603121561139b57600080fd5b60006113a9868287016112d0565b93505060206113ba868287016112d0565b92505060406113cb868287016112d0565b9150509250925092565b6113de816119ee565b82525050565b6113ed81611a00565b82525050565b6113fc81611a36565b82525050565b600061140f600e83611953565b915061141a82611ad2565b602082019050919050565b6000611432600b83611953565b915061143d82611afb565b602082019050919050565b6000611455600f83611953565b915061146082611b24565b602082019050919050565b6000611478600e83611953565b915061148382611b4d565b602082019050919050565b600061149b601483611953565b91506114a682611b76565b602082019050919050565b60006114be600883611953565b91506114c982611b9f565b602082019050919050565b60006114e1601483611953565b91506114ec82611bc8565b602082019050919050565b6000611504600b83611953565b915061150f82611bf1565b602082019050919050565b6000611527600983611953565b915061153282611c1a565b602082019050919050565b600061154a600f83611953565b915061155582611c43565b602082019050919050565b600061156d601383611953565b915061157882611c6c565b602082019050919050565b6000611590601583611953565b915061159b82611c95565b602082019050919050565b60006115b3601883611953565b91506115be82611cbe565b602082019050919050565b60006115d6601283611953565b91506115e182611ce7565b602082019050919050565b60006115f9602183611953565b915061160482611d10565b604082019050919050565b600061161c600c83611953565b915061162782611d5f565b602082019050919050565b61163b81611a2c565b82525050565b600060208201905061165660008301846113d5565b92915050565b600060608201905061167160008301866113d5565b61167e60208301856113d5565b61168b6040830184611632565b949350505050565b60006040820190506116a860008301856113d5565b6116b56020830184611632565b9392505050565b600060c0820190506116d160008301896113d5565b6116de6020830188611632565b6116eb6040830187611632565b6116f86060830186611632565b6117056080830185611632565b61171260a08301846113e4565b979650505050505050565b600060208201905061173260008301846113f3565b92915050565b6000602082019050818103600083015261175181611402565b9050919050565b6000602082019050818103600083015261177181611425565b9050919050565b6000602082019050818103600083015261179181611448565b9050919050565b600060208201905081810360008301526117b18161146b565b9050919050565b600060208201905081810360008301526117d18161148e565b9050919050565b600060208201905081810360008301526117f1816114b1565b9050919050565b60006020820190508181036000830152611811816114d4565b9050919050565b60006020820190508181036000830152611831816114f7565b9050919050565b600060208201905081810360008301526118518161151a565b9050919050565b600060208201905081810360008301526118718161153d565b9050919050565b6000602082019050818103600083015261189181611560565b9050919050565b600060208201905081810360008301526118b181611583565b9050919050565b600060208201905081810360008301526118d1816115a6565b9050919050565b600060208201905081810360008301526118f1816115c9565b9050919050565b60006020820190508181036000830152611911816115ec565b9050919050565b600060208201905081810360008301526119318161160f565b9050919050565b600060208201905061194d6000830184611632565b92915050565b600082825260208201905092915050565b600061196f82611a2c565b915061197a83611a2c565b9250827fffffffffffffffffffffffffffffffffffffffffffffffffffffffffffffffff038211156119af576119ae611aa3565b5b828201905092915050565b60006119c582611a2c565b91506119d083611a2c565b9250828210156119e3576119e2611aa3565b5b828203905092915050565b60006119f982611a0c565b9050919050565b60008115159050919050565b600073ffffffffffffffffffffffffffffffffffffffff82169050919050565b6000819050919050565b6000611a4182611a48565b9050919050565b6000611a5382611a0c565b9050919050565b6000611a6582611a2c565b91507fffffffffffffffffffffffffffffffffffffffffffffffffffffffffffffffff821415611a9857611a97611aa3565b5b600182019050919050565b7f4e487b7100000000000000000000000000000000000000000000000000000000600052601160045260246000fd5b7f43616d706169676e20656e646564000000000000000000000000000000000000600082015250565b7f4e6f74206d616e61676572000000000000000000000000000000000000000000600082015250565b7f496e76616c696420616464726573730000000000000000000000000000000000600082015250565b7f496e76616c696420616d6f756e74000000000000000000000000000000000000600082015250565b7f53746172742074696d65203c2070726573656e74000000000000000000000000600082015250565b7f476f616c206d6574000000000000000000000000000000000000000000000000600082015250565b7f43616d706169676e206e6f742073746172746564000000000000000000000000600082015250565b7f4e6f742063726561746f72000000000000000000000000000000000000000000600082015250565b7f476f616c203c3d20300000000000000000000000000000000000000000000000600082015250565b7f416c726561647920636c61696d65640000000000000000000000000000000000600082015250565b7f496e76616c69642043616d706169676e20494400000000000000000000000000600082015250565b7f456e642074696d65203c2053746172742074696d650000000000000000000000600082015250565b7f43616d706169676e20616c726561647920737461727465640000000000000000600082015250565b7f43616d706169676e206e6f7420656e6465640000000000000000000000000000600082015250565b7f4d61782063726f776466756e64206475726174696f6e2069732036302064617960008201527f7300000000000000000000000000000000000000000000000000000000000000602082015250565b7f476f616c206e6f74206d65740000000000000000000000000000000000000000600082015250565b611d91816119ee565b8114611d9c57600080fd5b50565b611da881611a00565b8114611db357600080fd5b50565b611dbf81611a2c565b8114611dca57600080fd5b5056fea2646970667358221220ca5b222dbf3593398b8d1ca85c292b0371b9d14cc2be0f0dbae508d8823d5c6c64736f6c63430008040033",
  "linkReferences": {},
  "deployedLinkReferences": {}
}