{
  "_format": "hh-sol-artifact-1",
  "contractName": "NftPositionManager",
  "sourceName": "contracts/NftPositionManager.sol",
  "abi": [
    {
      "inputs": [],
      "stateMutability": "nonpayable",
      "type": "constructor"
    },
    {
      "anonymous": false,
      "inputs": [
        {
          "indexed": true,
          "internalType": "address",
          "name": "owner",
          "type": "address"
        },
        {
          "indexed": true,
          "internalType": "address",
          "name": "approved",
          "type": "address"
        },
        {
          "indexed": true,
          "internalType": "uint256",
          "name": "tokenId",
          "type": "uint256"
        }
      ],
      "name": "Approval",
      "type": "event"
    },
    {
      "anonymous": false,
      "inputs": [
        {
          "indexed": true,
          "internalType": "address",
          "name": "owner",
          "type": "address"
        },
        {
          "indexed": true,
          "internalType": "address",
          "name": "operator",
          "type": "address"
        },
        {
          "indexed": false,
          "internalType": "bool",
          "name": "approved",
          "type": "bool"
        }
      ],
      "name": "ApprovalForAll",
      "type": "event"
    },
    {
      "anonymous": false,
      "inputs": [
        {
          "indexed": true,
          "internalType": "address",
          "name": "from",
          "type": "address"
        },
        {
          "indexed": true,
          "internalType": "address",
          "name": "to",
          "type": "address"
        },
        {
          "indexed": true,
          "internalType": "uint256",
          "name": "tokenId",
          "type": "uint256"
        }
      ],
      "name": "Transfer",
      "type": "event"
    },
    {
      "inputs": [],
      "name": "_crowdfundContract",
      "outputs": [
        {
          "internalType": "contract CrowdfundPlatform",
          "name": "",
          "type": "address"
        }
      ],
      "stateMutability": "view",
      "type": "function"
    },
    {
      "inputs": [],
      "name": "_tokenId",
      "outputs": [
        {
          "internalType": "uint256",
          "name": "",
          "type": "uint256"
        }
      ],
      "stateMutability": "view",
      "type": "function"
    },
    {
      "inputs": [],
      "name": "admin",
      "outputs": [
        {
          "internalType": "address",
          "name": "",
          "type": "address"
        }
      ],
      "stateMutability": "view",
      "type": "function"
    },
    {
      "inputs": [
        {
          "internalType": "address",
          "name": "to",
          "type": "address"
        },
        {
          "internalType": "uint256",
          "name": "tokenId",
          "type": "uint256"
        }
      ],
      "name": "approve",
      "outputs": [],
      "stateMutability": "nonpayable",
      "type": "function"
    },
    {
      "inputs": [
        {
          "internalType": "address",
          "name": "owner",
          "type": "address"
        }
      ],
      "name": "balanceOf",
      "outputs": [
        {
          "internalType": "uint256",
          "name": "",
          "type": "uint256"
        }
      ],
      "stateMutability": "view",
      "type": "function"
    },
    {
      "inputs": [
        {
          "internalType": "uint256",
          "name": "tokenId",
          "type": "uint256"
        }
      ],
      "name": "burn",
      "outputs": [],
      "stateMutability": "nonpayable",
      "type": "function"
    },
    {
      "inputs": [
        {
          "internalType": "uint256",
          "name": "tokenId",
          "type": "uint256"
        }
      ],
      "name": "burn2",
      "outputs": [],
      "stateMutability": "nonpayable",
      "type": "function"
    },
    {
      "inputs": [
        {
          "internalType": "uint256",
          "name": "tokenId",
          "type": "uint256"
        }
      ],
      "name": "getApproved",
      "outputs": [
        {
          "internalType": "address",
          "name": "",
          "type": "address"
        }
      ],
      "stateMutability": "view",
      "type": "function"
    },
    {
      "inputs": [
        {
          "internalType": "address",
          "name": "owner",
          "type": "address"
        },
        {
          "internalType": "address",
          "name": "operator",
          "type": "address"
        }
      ],
      "name": "isApprovedForAll",
      "outputs": [
        {
          "internalType": "bool",
          "name": "",
          "type": "bool"
        }
      ],
      "stateMutability": "view",
      "type": "function"
    },
    {
      "inputs": [
        {
          "internalType": "address",
          "name": "recipient",
          "type": "address"
        },
        {
          "internalType": "uint256",
          "name": "campaignId",
          "type": "uint256"
        },
        {
          "internalType": "uint256",
          "name": "tokenAmount",
          "type": "uint256"
        }
      ],
      "name": "mint",
      "outputs": [],
      "stateMutability": "nonpayable",
      "type": "function"
    },
    {
      "inputs": [],
      "name": "name",
      "outputs": [
        {
          "internalType": "string",
          "name": "",
          "type": "string"
        }
      ],
      "stateMutability": "view",
      "type": "function"
    },
    {
      "inputs": [
        {
          "internalType": "uint256",
          "name": "tokenId",
          "type": "uint256"
        }
      ],
      "name": "ownerOf",
      "outputs": [
        {
          "internalType": "address",
          "name": "",
          "type": "address"
        }
      ],
      "stateMutability": "view",
      "type": "function"
    },
    {
      "inputs": [
        {
          "internalType": "uint256",
          "name": "tokenId",
          "type": "uint256"
        }
      ],
      "name": "positions",
      "outputs": [
        {
          "internalType": "uint256",
          "name": "campaignId",
          "type": "uint256"
        },
        {
          "internalType": "uint256",
          "name": "tokenAmount",
          "type": "uint256"
        }
      ],
      "stateMutability": "view",
      "type": "function"
    },
    {
      "inputs": [
        {
          "internalType": "address",
          "name": "from",
          "type": "address"
        },
        {
          "internalType": "address",
          "name": "to",
          "type": "address"
        },
        {
          "internalType": "uint256",
          "name": "tokenId",
          "type": "uint256"
        }
      ],
      "name": "safeTransferFrom",
      "outputs": [],
      "stateMutability": "nonpayable",
      "type": "function"
    },
    {
      "inputs": [
        {
          "internalType": "address",
          "name": "from",
          "type": "address"
        },
        {
          "internalType": "address",
          "name": "to",
          "type": "address"
        },
        {
          "internalType": "uint256",
          "name": "tokenId",
          "type": "uint256"
        },
        {
          "internalType": "bytes",
          "name": "data",
          "type": "bytes"
        }
      ],
      "name": "safeTransferFrom",
      "outputs": [],
      "stateMutability": "nonpayable",
      "type": "function"
    },
    {
      "inputs": [
        {
          "internalType": "address",
          "name": "operator",
          "type": "address"
        },
        {
          "internalType": "bool",
          "name": "approved",
          "type": "bool"
        }
      ],
      "name": "setApprovalForAll",
      "outputs": [],
      "stateMutability": "nonpayable",
      "type": "function"
    },
    {
      "inputs": [
        {
          "internalType": "address",
          "name": "crowdfundAddress",
          "type": "address"
        }
      ],
      "name": "setCrowdfundAddress",
      "outputs": [],
      "stateMutability": "nonpayable",
      "type": "function"
    },
    {
      "inputs": [
        {
          "internalType": "bytes4",
          "name": "interfaceId",
          "type": "bytes4"
        }
      ],
      "name": "supportsInterface",
      "outputs": [
        {
          "internalType": "bool",
          "name": "",
          "type": "bool"
        }
      ],
      "stateMutability": "view",
      "type": "function"
    },
    {
      "inputs": [],
      "name": "symbol",
      "outputs": [
        {
          "internalType": "string",
          "name": "",
          "type": "string"
        }
      ],
      "stateMutability": "view",
      "type": "function"
    },
    {
      "inputs": [
        {
          "internalType": "uint256",
          "name": "tokenId",
          "type": "uint256"
        }
      ],
      "name": "tokenURI",
      "outputs": [
        {
          "internalType": "string",
          "name": "",
          "type": "string"
        }
      ],
      "stateMutability": "view",
      "type": "function"
    },
    {
      "inputs": [
        {
          "internalType": "address",
          "name": "from",
          "type": "address"
        },
        {
          "internalType": "address",
          "name": "to",
          "type": "address"
        },
        {
          "internalType": "uint256",
          "name": "tokenId",
          "type": "uint256"
        }
      ],
      "name": "transferFrom",
      "outputs": [],
      "stateMutability": "nonpayable",
      "type": "function"
    }
  ],
  "bytecode": "0x60806040523480156200001157600080fd5b506040518060400160405280601281526020017f43726f776466756e6420506f736974696f6e00000000000000000000000000008152506040518060400160405280600481526020017f46554e4400000000000000000000000000000000000000000000000000000000815250816000908051906020019062000096929190620000f9565b508060019080519060200190620000af929190620000f9565b50505033600860006101000a81548173ffffffffffffffffffffffffffffffffffffffff021916908373ffffffffffffffffffffffffffffffffffffffff1602179055506200020e565b8280546200010790620001a9565b90600052602060002090601f0160209004810192826200012b576000855562000177565b82601f106200014657805160ff191683800117855562000177565b8280016001018555821562000177579182015b828111156200017657825182559160200191906001019062000159565b5b5090506200018691906200018a565b5090565b5b80821115620001a55760008160009055506001016200018b565b5090565b60006002820490506001821680620001c257607f821691505b60208210811415620001d957620001d8620001df565b5b50919050565b7f4e487b7100000000000000000000000000000000000000000000000000000000600052602260045260246000fd5b612f71806200021e6000396000f3fe608060405234801561001057600080fd5b50600436106101375760003560e01c806370a08231116100b8578063b88d4fde1161007c578063b88d4fde1461034b578063c328332514610367578063c87b56dd14610383578063e985e9c5146103b3578063ebd8d717146103e3578063f851a4401461040157610137565b806370a082311461029457806395d89b41146102c457806399fbab88146102e25780639f4f480814610313578063a22cb4651461032f57610137565b806323b872dd116100ff57806323b872dd146101f2578063248225141461020e57806342842e0e1461022c57806342966c68146102485780636352211e1461026457610137565b806301ffc9a71461013c57806306fdde031461016c578063081812fc1461018a578063095ea7b3146101ba578063156e29f6146101d6575b600080fd5b610156600480360381019061015191906121c9565b61041f565b60405161016391906125ac565b60405180910390f35b610174610501565b60405161018191906125e2565b60405180910390f35b6101a4600480360381019061019f919061221b565b610593565b6040516101b1919061250e565b60405180910390f35b6101d460048036038101906101cf919061213e565b6105d9565b005b6101f060048036038101906101eb919061217a565b6106f1565b005b61020c60048036038101906102079190612038565b6107ec565b005b61021661084c565b60405161022391906127a4565b60405180910390f35b61024660048036038101906102419190612038565b610852565b005b610262600480360381019061025d919061221b565b610872565b005b61027e6004803603810190610279919061221b565b6109d7565b60405161028b919061250e565b60405180910390f35b6102ae60048036038101906102a99190611fd3565b610a89565b6040516102bb91906127a4565b60405180910390f35b6102cc610b41565b6040516102d991906125e2565b60405180910390f35b6102fc60048036038101906102f7919061221b565b610bd3565b60405161030a9291906127bf565b60405180910390f35b61032d60048036038101906103289190611fd3565b610c20565b005b61034960048036038101906103449190612102565b610cf4565b005b61036560048036038101906103609190612087565b610d0a565b005b610381600480360381019061037c919061221b565b610d6c565b005b61039d6004803603810190610398919061221b565b610ed1565b6040516103aa91906125e2565b60405180910390f35b6103cd60048036038101906103c89190611ffc565b610fe4565b6040516103da91906125ac565b60405180910390f35b6103eb611078565b6040516103f891906125c7565b60405180910390f35b61040961109e565b604051610416919061250e565b60405180910390f35b60007f80ac58cd000000000000000000000000000000000000000000000000000000007bffffffffffffffffffffffffffffffffffffffffffffffffffffffff1916827bffffffffffffffffffffffffffffffffffffffffffffffffffffffff191614806104ea57507f5b5e139f000000000000000000000000000000000000000000000000000000007bffffffffffffffffffffffffffffffffffffffffffffffffffffffff1916827bffffffffffffffffffffffffffffffffffffffffffffffffffffffff1916145b806104fa57506104f9826110c4565b5b9050919050565b60606000805461051090612a16565b80601f016020809104026020016040519081016040528092919081815260200182805461053c90612a16565b80156105895780601f1061055e57610100808354040283529160200191610589565b820191906000526020600020905b81548152906001019060200180831161056c57829003601f168201915b5050505050905090565b600061059e8261112e565b6004600083815260200190815260200160002060009054906101000a900473ffffffffffffffffffffffffffffffffffffffff169050919050565b60006105e4826109d7565b90508073ffffffffffffffffffffffffffffffffffffffff168373ffffffffffffffffffffffffffffffffffffffff161415610655576040517f08c379a000000000000000000000000000000000000000000000000000000000815260040161064c90612724565b60405180910390fd5b8073ffffffffffffffffffffffffffffffffffffffff16610674611179565b73ffffffffffffffffffffffffffffffffffffffff1614806106a357506106a28161069d611179565b610fe4565b5b6106e2576040517f08c379a00000000000000000000000000000000000000000000000000000000081526004016106d9906126c4565b60405180910390fd5b6106ec8383611181565b505050565b600960009054906101000a900473ffffffffffffffffffffffffffffffffffffffff1673ffffffffffffffffffffffffffffffffffffffff16639d31bc1e8484846040518463ffffffff1660e01b815260040161075093929190612575565b600060405180830381600087803b15801561076a57600080fd5b505af115801561077e573d6000803e3d6000fd5b505050506007600081548092919061079590612a79565b9190505550604051806040016040528083815260200182815250600a6000600754815260200190815260200160002060008201518160000155602082015181600101559050506107e78360075461123a565b505050565b6107fd6107f7611179565b82611414565b61083c576040517f08c379a000000000000000000000000000000000000000000000000000000000815260040161083390612764565b60405180910390fd5b6108478383836114a9565b505050565b60075481565b61086d83838360405180602001604052806000815250610d0a565b505050565b61087b816109d7565b73ffffffffffffffffffffffffffffffffffffffff163373ffffffffffffffffffffffffffffffffffffffff16146108e8576040517f08c379a00000000000000000000000000000000000000000000000000000000081526004016108df90612744565b60405180910390fd5b600960009054906101000a900473ffffffffffffffffffffffffffffffffffffffff1673ffffffffffffffffffffffffffffffffffffffff16638ff9ded133600a600085815260200190815260200160002060000154600a6000868152602001908152602001600020600101546040518463ffffffff1660e01b815260040161097393929190612575565b600060405180830381600087803b15801561098d57600080fd5b505af11580156109a1573d6000803e3d6000fd5b50505050600a6000828152602001908152602001600020600080820160009055600182016000905550506109d481611710565b50565b6000806002600084815260200190815260200160002060009054906101000a900473ffffffffffffffffffffffffffffffffffffffff169050600073ffffffffffffffffffffffffffffffffffffffff168173ffffffffffffffffffffffffffffffffffffffff161415610a80576040517f08c379a0000000000000000000000000000000000000000000000000000000008152600401610a7790612704565b60405180910390fd5b80915050919050565b60008073ffffffffffffffffffffffffffffffffffffffff168273ffffffffffffffffffffffffffffffffffffffff161415610afa576040517f08c379a0000000000000000000000000000000000000000000000000000000008152600401610af1906126a4565b60405180910390fd5b600360008373ffffffffffffffffffffffffffffffffffffffff1673ffffffffffffffffffffffffffffffffffffffff168152602001908152602001600020549050919050565b606060018054610b5090612a16565b80601f0160208091040260200160405190810160405280929190818152602001828054610b7c90612a16565b8015610bc95780601f10610b9e57610100808354040283529160200191610bc9565b820191906000526020600020905b815481529060010190602001808311610bac57829003601f168201915b5050505050905090565b6000806000600a6000858152602001908152602001600020604051806040016040529081600082015481526020016001820154815250509050806000015181602001519250925050915091565b600860009054906101000a900473ffffffffffffffffffffffffffffffffffffffff1673ffffffffffffffffffffffffffffffffffffffff163373ffffffffffffffffffffffffffffffffffffffff1614610cb0576040517f08c379a0000000000000000000000000000000000000000000000000000000008152600401610ca790612784565b60405180910390fd5b80600960006101000a81548173ffffffffffffffffffffffffffffffffffffffff021916908373ffffffffffffffffffffffffffffffffffffffff16021790555050565b610d06610cff611179565b8383611763565b5050565b610d1b610d15611179565b83611414565b610d5a576040517f08c379a0000000000000000000000000000000000000000000000000000000008152600401610d5190612764565b60405180910390fd5b610d66848484846118d0565b50505050565b610d75816109d7565b73ffffffffffffffffffffffffffffffffffffffff163373ffffffffffffffffffffffffffffffffffffffff1614610de2576040517f08c379a0000000000000000000000000000000000000000000000000000000008152600401610dd990612744565b60405180910390fd5b600960009054906101000a900473ffffffffffffffffffffffffffffffffffffffff1673ffffffffffffffffffffffffffffffffffffffff1663b15ce3ed33600a600085815260200190815260200160002060000154600a6000868152602001908152602001600020600101546040518463ffffffff1660e01b8152600401610e6d93929190612575565b600060405180830381600087803b158015610e8757600080fd5b505af1158015610e9b573d6000803e3d6000fd5b50505050600a600082815260200190815260200160002060008082016000905560018201600090555050610ece81611710565b50565b6060610edc8261112e565b6000600660008481526020019081526020016000208054610efc90612a16565b80601f0160208091040260200160405190810160405280929190818152602001828054610f2890612a16565b8015610f755780601f10610f4a57610100808354040283529160200191610f75565b820191906000526020600020905b815481529060010190602001808311610f5857829003601f168201915b505050505090506000610f8661192c565b9050600081511415610f9c578192505050610fdf565b600082511115610fd1578082604051602001610fb99291906124ea565b60405160208183030381529060405292505050610fdf565b610fda84611943565b925050505b919050565b6000600560008473ffffffffffffffffffffffffffffffffffffffff1673ffffffffffffffffffffffffffffffffffffffff16815260200190815260200160002060008373ffffffffffffffffffffffffffffffffffffffff1673ffffffffffffffffffffffffffffffffffffffff16815260200190815260200160002060009054906101000a900460ff16905092915050565b600960009054906101000a900473ffffffffffffffffffffffffffffffffffffffff1681565b600860009054906101000a900473ffffffffffffffffffffffffffffffffffffffff1681565b60007f01ffc9a7000000000000000000000000000000000000000000000000000000007bffffffffffffffffffffffffffffffffffffffffffffffffffffffff1916827bffffffffffffffffffffffffffffffffffffffffffffffffffffffff1916149050919050565b611137816119ab565b611176576040517f08c379a000000000000000000000000000000000000000000000000000000000815260040161116d90612704565b60405180910390fd5b50565b600033905090565b816004600083815260200190815260200160002060006101000a81548173ffffffffffffffffffffffffffffffffffffffff021916908373ffffffffffffffffffffffffffffffffffffffff160217905550808273ffffffffffffffffffffffffffffffffffffffff166111f4836109d7565b73ffffffffffffffffffffffffffffffffffffffff167f8c5be1e5ebec7d5bd14f71427d1e84f3dd0314c0f7b2291e5b200ac8c7c3b92560405160405180910390a45050565b600073ffffffffffffffffffffffffffffffffffffffff168273ffffffffffffffffffffffffffffffffffffffff1614156112aa576040517f08c379a00000000000000000000000000000000000000000000000000000000081526004016112a1906126e4565b60405180910390fd5b6112b3816119ab565b156112f3576040517f08c379a00000000000000000000000000000000000000000000000000000000081526004016112ea90612644565b60405180910390fd5b6112ff60008383611a17565b6001600360008473ffffffffffffffffffffffffffffffffffffffff1673ffffffffffffffffffffffffffffffffffffffff168152602001908152602001600020600082825461134f9190612881565b92505081905550816002600083815260200190815260200160002060006101000a81548173ffffffffffffffffffffffffffffffffffffffff021916908373ffffffffffffffffffffffffffffffffffffffff160217905550808273ffffffffffffffffffffffffffffffffffffffff16600073ffffffffffffffffffffffffffffffffffffffff167fddf252ad1be2c89b69c2b068fc378daa952ba7f163c4a11628f55a4df523b3ef60405160405180910390a461141060008383611a1c565b5050565b600080611420836109d7565b90508073ffffffffffffffffffffffffffffffffffffffff168473ffffffffffffffffffffffffffffffffffffffff16148061146257506114618185610fe4565b5b806114a057508373ffffffffffffffffffffffffffffffffffffffff1661148884610593565b73ffffffffffffffffffffffffffffffffffffffff16145b91505092915050565b8273ffffffffffffffffffffffffffffffffffffffff166114c9826109d7565b73ffffffffffffffffffffffffffffffffffffffff161461151f576040517f08c379a000000000000000000000000000000000000000000000000000000000815260040161151690612624565b60405180910390fd5b600073ffffffffffffffffffffffffffffffffffffffff168273ffffffffffffffffffffffffffffffffffffffff16141561158f576040517f08c379a000000000000000000000000000000000000000000000000000000000815260040161158690612664565b60405180910390fd5b61159a838383611a17565b6115a5600082611181565b6001600360008573ffffffffffffffffffffffffffffffffffffffff1673ffffffffffffffffffffffffffffffffffffffff16815260200190815260200160002060008282546115f59190612908565b925050819055506001600360008473ffffffffffffffffffffffffffffffffffffffff1673ffffffffffffffffffffffffffffffffffffffff168152602001908152602001600020600082825461164c9190612881565b92505081905550816002600083815260200190815260200160002060006101000a81548173ffffffffffffffffffffffffffffffffffffffff021916908373ffffffffffffffffffffffffffffffffffffffff160217905550808273ffffffffffffffffffffffffffffffffffffffff168473ffffffffffffffffffffffffffffffffffffffff167fddf252ad1be2c89b69c2b068fc378daa952ba7f163c4a11628f55a4df523b3ef60405160405180910390a461170b838383611a1c565b505050565b61171981611a21565b600060066000838152602001908152602001600020805461173990612a16565b9050146117605760066000828152602001908152602001600020600061175f9190611ea5565b5b50565b8173ffffffffffffffffffffffffffffffffffffffff168373ffffffffffffffffffffffffffffffffffffffff1614156117d2576040517f08c379a00000000000000000000000000000000000000000000000000000000081526004016117c990612684565b60405180910390fd5b80600560008573ffffffffffffffffffffffffffffffffffffffff1673ffffffffffffffffffffffffffffffffffffffff16815260200190815260200160002060008473ffffffffffffffffffffffffffffffffffffffff1673ffffffffffffffffffffffffffffffffffffffff16815260200190815260200160002060006101000a81548160ff0219169083151502179055508173ffffffffffffffffffffffffffffffffffffffff168373ffffffffffffffffffffffffffffffffffffffff167f17307eab39ab6107e8899845ad3d59bd9653f200f220920489ca2b5937696c31836040516118c391906125ac565b60405180910390a3505050565b6118db8484846114a9565b6118e784848484611b3e565b611926576040517f08c379a000000000000000000000000000000000000000000000000000000000815260040161191d90612604565b60405180910390fd5b50505050565b606060405180602001604052806000815250905090565b606061194e8261112e565b600061195861192c565b9050600081511161197857604051806020016040528060008152506119a3565b8061198284611cd5565b6040516020016119939291906124ea565b6040516020818303038152906040525b915050919050565b60008073ffffffffffffffffffffffffffffffffffffffff166002600084815260200190815260200160002060009054906101000a900473ffffffffffffffffffffffffffffffffffffffff1673ffffffffffffffffffffffffffffffffffffffff1614159050919050565b505050565b505050565b6000611a2c826109d7565b9050611a3a81600084611a17565b611a45600083611181565b6001600360008373ffffffffffffffffffffffffffffffffffffffff1673ffffffffffffffffffffffffffffffffffffffff1681526020019081526020016000206000828254611a959190612908565b925050819055506002600083815260200190815260200160002060006101000a81549073ffffffffffffffffffffffffffffffffffffffff021916905581600073ffffffffffffffffffffffffffffffffffffffff168273ffffffffffffffffffffffffffffffffffffffff167fddf252ad1be2c89b69c2b068fc378daa952ba7f163c4a11628f55a4df523b3ef60405160405180910390a4611b3a81600084611a1c565b5050565b6000611b5f8473ffffffffffffffffffffffffffffffffffffffff16611e82565b15611cc8578373ffffffffffffffffffffffffffffffffffffffff1663150b7a02611b88611179565b8786866040518563ffffffff1660e01b8152600401611baa9493929190612529565b602060405180830381600087803b158015611bc457600080fd5b505af1925050508015611bf557506040513d601f19601f82011682018060405250810190611bf291906121f2565b60015b611c78573d8060008114611c25576040519150601f19603f3d011682016040523d82523d6000602084013e611c2a565b606091505b50600081511415611c70576040517f08c379a0000000000000000000000000000000000000000000000000000000008152600401611c6790612604565b60405180910390fd5b805181602001fd5b63150b7a0260e01b7bffffffffffffffffffffffffffffffffffffffffffffffffffffffff1916817bffffffffffffffffffffffffffffffffffffffffffffffffffffffff191614915050611ccd565b600190505b949350505050565b60606000821415611d1d576040518060400160405280600181526020017f30000000000000000000000000000000000000000000000000000000000000008152509050611e7d565b600082905060005b60008214611d4f578080611d3890612a79565b915050600a82611d4891906128d7565b9150611d25565b60008167ffffffffffffffff811115611d91577f4e487b7100000000000000000000000000000000000000000000000000000000600052604160045260246000fd5b6040519080825280601f01601f191660200182016040528015611dc35781602001600182028036833780820191505090505b5090505b60008514611e7657600182611ddc9190612908565b9150600a85611deb9190612ac2565b6030611df79190612881565b60f81b818381518110611e33577f4e487b7100000000000000000000000000000000000000000000000000000000600052603260045260246000fd5b60200101907effffffffffffffffffffffffffffffffffffffffffffffffffffffffffffff1916908160001a905350600a85611e6f91906128d7565b9450611dc7565b8093505050505b919050565b6000808273ffffffffffffffffffffffffffffffffffffffff163b119050919050565b508054611eb190612a16565b6000825580601f10611ec35750611ee2565b601f016020900490600052602060002090810190611ee19190611ee5565b5b50565b5b80821115611efe576000816000905550600101611ee6565b5090565b6000611f15611f108461280d565b6127e8565b905082815260208101848484011115611f2d57600080fd5b611f388482856129d4565b509392505050565b600081359050611f4f81612edf565b92915050565b600081359050611f6481612ef6565b92915050565b600081359050611f7981612f0d565b92915050565b600081519050611f8e81612f0d565b92915050565b600082601f830112611fa557600080fd5b8135611fb5848260208601611f02565b91505092915050565b600081359050611fcd81612f24565b92915050565b600060208284031215611fe557600080fd5b6000611ff384828501611f40565b91505092915050565b6000806040838503121561200f57600080fd5b600061201d85828601611f40565b925050602061202e85828601611f40565b9150509250929050565b60008060006060848603121561204d57600080fd5b600061205b86828701611f40565b935050602061206c86828701611f40565b925050604061207d86828701611fbe565b9150509250925092565b6000806000806080858703121561209d57600080fd5b60006120ab87828801611f40565b94505060206120bc87828801611f40565b93505060406120cd87828801611fbe565b925050606085013567ffffffffffffffff8111156120ea57600080fd5b6120f687828801611f94565b91505092959194509250565b6000806040838503121561211557600080fd5b600061212385828601611f40565b925050602061213485828601611f55565b9150509250929050565b6000806040838503121561215157600080fd5b600061215f85828601611f40565b925050602061217085828601611fbe565b9150509250929050565b60008060006060848603121561218f57600080fd5b600061219d86828701611f40565b93505060206121ae86828701611fbe565b92505060406121bf86828701611fbe565b9150509250925092565b6000602082840312156121db57600080fd5b60006121e984828501611f6a565b91505092915050565b60006020828403121561220457600080fd5b600061221284828501611f7f565b91505092915050565b60006020828403121561222d57600080fd5b600061223b84828501611fbe565b91505092915050565b61224d8161293c565b82525050565b61225c8161294e565b82525050565b600061226d8261283e565b6122778185612854565b93506122878185602086016129e3565b61229081612baf565b840191505092915050565b6122a4816129b0565b82525050565b60006122b582612849565b6122bf8185612865565b93506122cf8185602086016129e3565b6122d881612baf565b840191505092915050565b60006122ee82612849565b6122f88185612876565b93506123088185602086016129e3565b80840191505092915050565b6000612321603283612865565b915061232c82612bc0565b604082019050919050565b6000612344602583612865565b915061234f82612c0f565b604082019050919050565b6000612367601c83612865565b915061237282612c5e565b602082019050919050565b600061238a602483612865565b915061239582612c87565b604082019050919050565b60006123ad601983612865565b91506123b882612cd6565b602082019050919050565b60006123d0602983612865565b91506123db82612cff565b604082019050919050565b60006123f3603e83612865565b91506123fe82612d4e565b604082019050919050565b6000612416602083612865565b915061242182612d9d565b602082019050919050565b6000612439601883612865565b915061244482612dc6565b602082019050919050565b600061245c602183612865565b915061246782612def565b604082019050919050565b600061247f600983612865565b915061248a82612e3e565b602082019050919050565b60006124a2602e83612865565b91506124ad82612e67565b604082019050919050565b60006124c5600983612865565b91506124d082612eb6565b602082019050919050565b6124e4816129a6565b82525050565b60006124f682856122e3565b915061250282846122e3565b91508190509392505050565b60006020820190506125236000830184612244565b92915050565b600060808201905061253e6000830187612244565b61254b6020830186612244565b61255860408301856124db565b818103606083015261256a8184612262565b905095945050505050565b600060608201905061258a6000830186612244565b61259760208301856124db565b6125a460408301846124db565b949350505050565b60006020820190506125c16000830184612253565b92915050565b60006020820190506125dc600083018461229b565b92915050565b600060208201905081810360008301526125fc81846122aa565b905092915050565b6000602082019050818103600083015261261d81612314565b9050919050565b6000602082019050818103600083015261263d81612337565b9050919050565b6000602082019050818103600083015261265d8161235a565b9050919050565b6000602082019050818103600083015261267d8161237d565b9050919050565b6000602082019050818103600083015261269d816123a0565b9050919050565b600060208201905081810360008301526126bd816123c3565b9050919050565b600060208201905081810360008301526126dd816123e6565b9050919050565b600060208201905081810360008301526126fd81612409565b9050919050565b6000602082019050818103600083015261271d8161242c565b9050919050565b6000602082019050818103600083015261273d8161244f565b9050919050565b6000602082019050818103600083015261275d81612472565b9050919050565b6000602082019050818103600083015261277d81612495565b9050919050565b6000602082019050818103600083015261279d816124b8565b9050919050565b60006020820190506127b960008301846124db565b92915050565b60006040820190506127d460008301856124db565b6127e160208301846124db565b9392505050565b60006127f2612803565b90506127fe8282612a48565b919050565b6000604051905090565b600067ffffffffffffffff82111561282857612827612b80565b5b61283182612baf565b9050602081019050919050565b600081519050919050565b600081519050919050565b600082825260208201905092915050565b600082825260208201905092915050565b600081905092915050565b600061288c826129a6565b9150612897836129a6565b9250827fffffffffffffffffffffffffffffffffffffffffffffffffffffffffffffffff038211156128cc576128cb612af3565b5b828201905092915050565b60006128e2826129a6565b91506128ed836129a6565b9250826128fd576128fc612b22565b5b828204905092915050565b6000612913826129a6565b915061291e836129a6565b92508282101561293157612930612af3565b5b828203905092915050565b600061294782612986565b9050919050565b60008115159050919050565b60007fffffffff0000000000000000000000000000000000000000000000000000000082169050919050565b600073ffffffffffffffffffffffffffffffffffffffff82169050919050565b6000819050919050565b60006129bb826129c2565b9050919050565b60006129cd82612986565b9050919050565b82818337600083830152505050565b60005b83811015612a015780820151818401526020810190506129e6565b83811115612a10576000848401525b50505050565b60006002820490506001821680612a2e57607f821691505b60208210811415612a4257612a41612b51565b5b50919050565b612a5182612baf565b810181811067ffffffffffffffff82111715612a7057612a6f612b80565b5b80604052505050565b6000612a84826129a6565b91507fffffffffffffffffffffffffffffffffffffffffffffffffffffffffffffffff821415612ab757612ab6612af3565b5b600182019050919050565b6000612acd826129a6565b9150612ad8836129a6565b925082612ae857612ae7612b22565b5b828206905092915050565b7f4e487b7100000000000000000000000000000000000000000000000000000000600052601160045260246000fd5b7f4e487b7100000000000000000000000000000000000000000000000000000000600052601260045260246000fd5b7f4e487b7100000000000000000000000000000000000000000000000000000000600052602260045260246000fd5b7f4e487b7100000000000000000000000000000000000000000000000000000000600052604160045260246000fd5b6000601f19601f8301169050919050565b7f4552433732313a207472616e7366657220746f206e6f6e20455243373231526560008201527f63656976657220696d706c656d656e7465720000000000000000000000000000602082015250565b7f4552433732313a207472616e736665722066726f6d20696e636f72726563742060008201527f6f776e6572000000000000000000000000000000000000000000000000000000602082015250565b7f4552433732313a20746f6b656e20616c7265616479206d696e74656400000000600082015250565b7f4552433732313a207472616e7366657220746f20746865207a65726f2061646460008201527f7265737300000000000000000000000000000000000000000000000000000000602082015250565b7f4552433732313a20617070726f766520746f2063616c6c657200000000000000600082015250565b7f4552433732313a2061646472657373207a65726f206973206e6f74206120766160008201527f6c6964206f776e65720000000000000000000000000000000000000000000000602082015250565b7f4552433732313a20617070726f76652063616c6c6572206973206e6f7420746f60008201527f6b656e206f776e6572206e6f7220617070726f76656420666f7220616c6c0000602082015250565b7f4552433732313a206d696e7420746f20746865207a65726f2061646472657373600082015250565b7f4552433732313a20696e76616c696420746f6b656e2049440000000000000000600082015250565b7f4552433732313a20617070726f76616c20746f2063757272656e74206f776e6560008201527f7200000000000000000000000000000000000000000000000000000000000000602082015250565b7f4e6f74206f776e65720000000000000000000000000000000000000000000000600082015250565b7f4552433732313a2063616c6c6572206973206e6f7420746f6b656e206f776e6560008201527f72206e6f7220617070726f766564000000000000000000000000000000000000602082015250565b7f4e6f742061646d696e0000000000000000000000000000000000000000000000600082015250565b612ee88161293c565b8114612ef357600080fd5b50565b612eff8161294e565b8114612f0a57600080fd5b50565b612f168161295a565b8114612f2157600080fd5b50565b612f2d816129a6565b8114612f3857600080fd5b5056fea264697066735822122040044730ae5d336b014e3dfe518b1f3dc0dff61aec286f934a4567c78898e7c864736f6c63430008040033",
  "linkReferences": {},
  "deployedLinkReferences": {}
}